:100000000C94DC010C9404020C9404020C94040281
:100010000C9404020C9404020C9404020C94040248
:100020000C9404020C9404020C94C9190C94A217A9
:100030000C9404020C9404020C9404020C94040228
:100040000C9404020C9404020C9404020C94040218
:100050000C9404020C9404020C9404020C940717F0
:100060000C9404020C944F170C947C170C9404020B
:100070000C9404020C9404020C9404020C940402E8
:100080000C9404020C9404020C9404020C940402D8
:100090000C9404020C9404020C9404020C940402C8
:1000A0000C9404020C9404020C9404020000C0C1DD
:1000B000C1810140C30103C00280C241C60106C024
:1000C0000780C7410500C5C1C4810440CC010CC0F4
:1000D0000D80CD410F00CFC1CE810E400A00CAC1B4
:1000E000CB810B40C90109C00880C841D80118C0A4
:1000F0001980D9411B00DBC1DA811A401E00DEC124
:10010000DF811F40DD011DC01C80DC411400D4C113
:10011000D5811540D70117C01680D641D20112C033
:100120001380D3411100D1C1D0811040F00130C003
:100130003180F1413300F3C1F28132403600F6C123
:10014000F7813740F50135C03480F4413C00FCC1F3
:10015000FD813D40FF013FC03E80FE41FA013AC0B3
:100160003B80FB413900F9C1F88138402800E8C1E3
:10017000E9812940EB012BC02A80EA41EE012EC023
:100180002F80EF412D00EDC1EC812C40E40124C013
:100190002580E5412700E7C1E68126402200E2C133
:1001A000E3812340E10121C02080E041A00160C043
:1001B0006180A1416300A3C1A28162406600A6C123
:1001C000A7816740A50165C06480A4416C00ACC1F3
:1001D000AD816D40AF016FC06E80AE41AA016AC0B3
:1001E0006B80AB416900A9C1A88168407800B8C1A3
:1001F000B9817940BB017BC07A80BA41BE017EC023
:100200007F80BF417D00BDC1BC817C40B40174C012
:100210007580B5417700B7C1B68176407200B2C132
:10022000B3817340B10171C07080B041500090C182
:1002300091815140930153C052809241960156C022
:1002400057809741550095C1948154409C015CC0F2
:100250005D809D415F009FC19E815E405A009AC1B2
:100260009B815B40990159C058809841880148C0E2
:10027000498089414B008BC18A814A404E008EC122
:100280008F814F408D014DC04C808C41440084C112
:1002900085814540870147C046808641820142C032
:1002A00043808341410081C18081404000000706B6
:1002B00005040100080A0B0C0D0912010002EF02EF
:1002C00001404123378000010102030104030904B6
:1002D00041726475696E6F204C4C430041726475C5
:1002E000696E6F204D6963726F00080B0002020295
:1002F00000000904000001020200000524001001B2
:100300000524010101042402060524060001070555
:10031000810310004009040100020A0000000705E3
:1003200002024000000705830240000000000000B8
:100330002300260029002C002F00000000020009E5
:100340000F0000030401000C00000000000000008A
:100350000000000000000000000000000025002850
:10036000002B002E00310000000000240027002A8E
:10037000002D0030000404040404030405020202FA
:10038000020403020202020606060606060404022E
:100390000202040404080201104080401020408042
:1003A00040800802040180402010020110801020CB
:1003B00040402000A323361A11241FBECFEFDAE0FD
:1003C000DEBFCDBF12E0A0E0B1E0E8E3F2E502C09D
:1003D00005900D92AC3AB107D9F724E0ACEAB2E04F
:1003E00001C01D92A73BB207E1F711E0CBEDD1E0D0
:1003F00004C02197FE010E945F27CA3DD107C9F7BB
:100400000E944A1A0C94C8280C940000FC0165A5AF
:1004100070E080E090E0089560E070E0CB01089526
:10042000CF93DF938091D10381112FC0A091CF038F
:10043000B091D0038091CB039091CC03FC0120E0DC
:1004400030E0C081D1814C175D0729F4C281D3818E
:100450006C177D0731F02F5F3F4F3696A217B30719
:1004600080F7AD014F5F5F4F2417350770F4A21777
:10047000B30758F066E0629FA001639F500D1124FE
:10048000840F951FDF91CF91089580E090E0FACF1F
:10049000CF92DF92EF92FF920F931F93CF93DF9350
:1004A000CDB7DEB72C970FB6F894DEBF0FBECDBF29
:1004B00080E090E02C960FB6F894DEBF0FBECDBF63
:1004C000DF91CF911F910F91FF90EF90DF90CF9030
:1004D00008952FB7F8946091C7037091C803809175
:1004E000C9039091CA032FBF08953FB7F894809134
:1004F000C2039091C303A091C403B091C50326B574
:10050000A89B05C02F3F19F00196A11DB11D3FBF4B
:10051000BA2FA92F982F8827BC01CD01620F711D1A
:10052000811D911D42E0660F771F881F991F4A9514
:10053000D1F70895CF93DF93EC010E9475026B878A
:100540007C878D879E87DF91CF910895CF92DF9230
:10055000EF92FF920F931F93CF93DF93EC016B0108
:100560008D8987FF07C09B898F778D8B9C8BCE01F0
:100570000E949A028B8980FD1CC00E947502E12CAA
:10058000F12C0B851C852D853E85601B710B820B24
:10059000930B0E9427262FE632E143E85AE30E949C
:1005A000BF260E94F82521E0C616D706E806F90600
:1005B00008F020E0822FDF91CF911F910F91FF90E3
:1005C000EF90DF90CF9008954F925F926F927F925D
:1005D0008F929F92AF92BF92CF92DF92EF92FF9253
:1005E0000F931F93CF93DF938B01D82FC92F0E94B6
:1005F0007502262F822E972E5C016801ED2EFC2EAF
:1006000005C0C114D104E104F10409F10E9475028E
:100610002B013C01481859086A087B088601DE2D29
:10062000CF2D31E0C31AD108E108F108282D792D2A
:10063000C50138EE830E33E0931EA11CB11C38EEC9
:10064000431633E0530661047104D8F6D3CFDF912B
:10065000CF911F910F91FF90EF90DF90CF90BF90BF
:10066000AF909F908F907F906F905F904F90089584
:10067000CF93DF9390E0FC01EC56FC4F24918B5814
:100680009C4FFC0184918115C9F090E0880F991F5F
:10069000FC01E959FC4FA591B591FC01E75AFC4FCB
:1006A000C591D5919FB761110CC0F8948C9120959C
:1006B00082238C938881282328839FBFDF91CF9149
:1006C0000895623051F4F8943C91822F80958323F1
:1006D0008C938881822B8883F0CFF8948C91822B25
:1006E0008C93EBCFCF93DF93EC018D8980FF28C0F3
:1006F0008E7F8D8B6A834B830E9475026F87788B08
:10070000898B9A8B6B877C878D879E878A818F3FA9
:1007100049F0998162E0923019F0911103C060E0D4
:100720000E9438038B818F3F59F0998162E09230AB
:1007300019F0911105C060E0DF91CF910C9438035E
:10074000DF91CF91089581508F30C0F5E82FF0E010
:10075000EB52F74D0C945F27809180008F77809348
:1007600080000895809180008F7DF9CF8091800076
:10077000877FF5CF84B58F7784BD089584B58F7D4D
:10078000FBCF809190008F778093900008958091A7
:1007900090008F7DF9CF80919000877FF5CF809179
:1007A000C0008F778093C00008958091C0008F7D36
:1007B000F9CF8091C200877F8093C20008951F9374
:1007C000CF93DF93162F282F30E0F901E65CFC4F22
:1007D0008491F901EC56FC4FD491F901EB58FC4F90
:1007E000C491C115A1F081110E94A303EC2FF0E088
:1007F000EE0FFF1FE75AFC4FA591B5919FB7F894F4
:100800008C91111108C0D095D823DC939FBFDF9144
:10081000CF911F9108958D2B8C93F8CFCF93DF93B9
:10082000282F30E0F901E65CFC4F8491F901EC5689
:10083000FC4FD491F901EB58FC4FC491C11581F0E4
:1008400081110E94A303EC2FF0E0EE0FFF1FE45D87
:10085000FC4FA591B591EC91ED2381E0E11101C030
:1008600080E090E0DF91CF910895FC01848595852B
:1008700097FD0BC09FB7F89482E08093E9008091C8
:10088000F2009FBF90E0019608959FB7F89482E030
:100890008093E9008091F2009FBF90E0089583E08B
:1008A0008093E9008091F200811519F08AE380932A
:1008B000E8000895CF93DF930F92CDB7DEB7DC0148
:1008C0006983ED91FC910280F381E02D41E050E0DD
:1008D000BE016F5F7F4F09950F90DF91CF91089513
:1008E000FC01A48DA80FB92FB11DA35ABF4F2C91A5
:1008F000848D90E001968F739927848FA689B7899C
:100900002C93A089B1898C9182748C93938D848D62
:10091000981306C00288F389E02D80818F7D808343
:100920000895FC01818D228D90E0805C9F4F821B99
:1009300091098F739927089582E293E00E949104B0
:100940009C0181E0232B09F480E0089580E090E091
:10095000892B29F00E949C0481110C9400000895B9
:10096000FC01918D828D981731F0828DE80FF11D79
:10097000858D90E008958FEF9FEF0895FC01918D94
:10098000828D981761F0A28DAE0FBF2FB11D5D96BD
:100990008C91928D9F5F9F73928F90E008958FEF5F
:1009A0009FEF0895FC01538D448D842F90E0252FF7
:1009B00030E0821B930B541710F0CF9608950197E7
:1009C0000895CF93DF93EC01888D81110FC0DF91E3
:1009D000CF9108950FB607FC0DC08C9185FF0AC01A
:1009E000808185FF07C0CE010E947004AA89BB895F
:1009F000E889F9898C9185FDEDCF808186FFEACF6A
:100A0000E6CFEF92FF920F931F93CF93DF93EC010A
:100A1000F62E81E0888F9B8D8C8D981319C0E88904
:100A2000F989808185FF14C09FB7F894EE89FF890A
:100A30006083E889F9898081827480839FBF81E027
:100A400090E0DF91CF911F910F91FF90EF9008956B
:100A50000B8D10E00F5F1F4F0F731127E02E8C8D51
:100A60008E1579F0EB8DEC0FFD2FF11DE35AFF4F42
:100A7000F0829FB7F8940B8FEA89FB8980818062AE
:100A8000DCCF0FB607FCEBCFE889F989808185FFC1
:100A9000E6CFCE010E947004E2CFCF92DF92EF92B8
:100AA000FF920F931F93CF93DF937C016A0100E0C5
:100AB00010E00C151D0551F4C801DF91CF911F9175
:100AC0000F91FF90EF90DF90CF900895EB01D70149
:100AD000ED91FC910190F081E02D6991C70109959C
:100AE000892B51F30F5F1F4FBE01E3CF615028F4F4
:100AF000289A84E6809321030895FC018091F100F7
:100B00008193CF01F3CF40911F0350912003209197
:100B10001D0330911E0342175307BCF49091E80067
:100B200095709115D9F39091E80092FD19C08093CA
:100B3000F10080911F039091200301968F739927F4
:100B4000892B19F48EEF8093E80080911F03909118
:100B5000200301969093200380931F0381E0089562
:100B600080E00895EF92FF920F931F93CF93DF934E
:100B7000F82E192FE62E042F81E0860F880F0E9491
:100B8000830583E00E948305CF2DD12FEC0EFD2E2F
:100B9000F11CCE15DF0511F481E00EC0011599F0AE
:100BA000FE0184910E948305182F80E00E94830536
:100BB000812321968111EDCFDF91CF911F910F916C
:100BC000FF90EF9008958881EDCF8091B902811157
:100BD0000DC082E08093B50284E08093B60210924B
:100BE000B8021092B70281E08093B90285EB92E0DF
:100BF00008952FB7F89483E08093E9009091E8007E
:100C0000892F807295FF04C09091F20080E4891BC7
:100C10002FBF08950E94F90590E008958F929F924A
:100C2000AF92BF92CF92DF92EF92FF920F931F93FA
:100C3000CF93DF937C018B01EA0180910E01811536
:100C400071F18091C103811551F18091C00380FF42
:100C500005C08091E00082608093E0006E01B12CBD
:100C60008AEFA82E93E0892E2AE3922E0CC00E94D0
:100C7000F905811129C0AA9491F061E070E080E04B
:100C800090E00E94E402C114D10489F7B110EFCFC3
:100C90005D9A84E68093BF031C161D063CF081E03C
:100CA00090E0F70193838283C0E0D0E0CE01DF9132
:100CB000CF911F910F91FF90EF90DF90CF90BF9059
:100CC000AF909F908F900895C816D1040CF48C2D8E
:100CD0009FB7F8948092E9002091E80025FD02C0BA
:100CE0009FBFD1CF282F30E0C81AD108A80181506A
:100CF00040F4020F131FB11451F09092E800B12C90
:100D0000EFCFFA0141914093F100AF01F0CF809114
:100D1000E80085FDF4CF9092E800BB24B394C114A1
:100D2000D104F1F2ECCF9091C103911103C08FEF88
:100D30009FEF08952FB7F89492E09093E900909177
:100D4000F200492F50E0911102C0452B31F0289A52
:100D500084E6809321038091F100911102C02FBF9E
:100D6000E6CF9091F200911103C09BE69093E800CA
:100D70002FBF90E00895CF93DF93EC018C859D8584
:100D800097FF04C00E9493069D878C87DF91CF91C7
:100D90000895FC018485958597FD0C9493062FEFAB
:100DA0003FEF358724870895CF93C0910E016AE005
:100DB00070E080E090E00E94E40281E0C11101C097
:100DC00080E0CF910895FF920F931F93CF93DF930D
:100DD000F82EEB018B01040F151FC017D10749F046
:100DE000F11469F0FE0184910E948305219681111E
:100DF000F4CFDF91CF911F910F91FF9008958881DB
:100E0000F3CF0F931F93CF93DF930F92CDB7DEB73E
:100E100082E0898342E450E06AEE72E080E80E945A
:100E2000E3060E94E505DC0112960D911C91011567
:100E3000110539F489810F90DF91CF911F910F91A6
:100E40000895D801ED91FC910280F381E02DBE015F
:100E50006F5F7F4FC801099597FDECCFF8010085C2
:100E60001185E5CF8095E82FF0E0EE0FFF1FE455E8
:100E7000FF4F85919591E92FE095962F272F460FEB
:100E8000491302C09E2F0895A92FB22F9D91E927E3
:100E9000F0E0EE0FFF1FE455FF4F25913591E82F4D
:100EA000E327822F9A2F2B2FEBCFCF92DF92EF9257
:100EB000FF920F931F93CF93DF93EC01E62EF42E56
:100EC000052F122F422F6F2D752F8E2D0E94320766
:100ED000D82EC92E8889998997FD07C06A890E94F2
:100EE000DF038BE99FE00197F1F78E859F85DC0199
:100EF000ED91FC910190F081E02D6E2D09958E858C
:100F00009F85412F50E0DC01ED91FC910280F3813F
:100F1000E02D6F2D702F09958E859F85DC01ED9159
:100F2000FC910190F081E02D6C2D09958E859F85B7
:100F3000DC01ED91FC910190F081E02D6D2D099582
:100F40008E859F85DC01ED91FC910680F781E02D77
:100F500009958889998997FD0DC06A8991E069276B
:100F6000DF91CF911F910F91FF90EF90DF90CF9085
:100F70000C94DF03DF91CF911F910F91FF90EF90C1
:100F8000DF90CF900895AF92BF92CF92DF92EF9211
:100F9000FF920F931F93CF93DF93CDB7DEB72897C0
:100FA0000FB6F894DEBF0FBECDBF7C016A01CB0146
:100FB00000E010E02091B20221116CC02091B0023B
:100FC0003091B102A090AC02B090AD02D80153E0D4
:100FD000AA0FBB1F5A95E1F7AA0DBB1D20173107B9
:100FE000D8F52F5F3F4F02171307A8F4980143E08D
:100FF000220F331F4A95E1F7F501E20FF31F28E0B6
:10100000DE01119601900D922A95E1F7EF81F885A6
:10101000BC01C70109952091B20221110CC00F5FDC
:101020001F4F2091B0023091B1022F5F3F4F021746
:10103000130708F4BFCF28960FB6F894DEBF0FBE93
:10104000CDBFDF91CF911F910F91FF90EF90DF9077
:10105000CF90BF90AF90089512966D917C911397A9
:10106000F701408151816417750781F414966D91E1
:101070007C911597428153816417750739F44D911E
:101080005C911197C416D50609F4ABCF0F5F1F4FC3
:101090001896A4CF01E010E0BECF0F931F93CF931B
:1010A000DF93362F272FBC018A01432F522F81E176
:1010B00094E00E941002EC0180E0209769F080919A
:1010C0001804811571F040E050E0B801CE010E9493
:1010D000C3079D838C8381E0DF91CF911F910F9196
:1010E00008950C831D83F7CFCF93DF93EC010E940B
:1010F0001002FC01892B69F0848195812F812115D3
:1011000051F041E050E0BC01CF01DF91CF910C9450
:10111000C30780E090E0DF91CF9108956F927F92B6
:101120008F929F92AF92BF92CF92DF92EF92FF92F7
:101130000F931F93CF93DF93782E692E6B01B22EFE
:10114000A32E78014A0110E0C12FD0E01E151F0424
:1011500078F0DF91CF911F910F91FF90EF90DF908A
:10116000CF90BF90AF909F908F907F906F90089599
:10117000CE01880D991D4B2D5A2DBC01872D962D22
:101180000E947408CC0FDD1FCC0DDD1D9827892728
:101190009827998388831F5FD7CF2F923F924F92D2
:1011A0005F926F927F928F929F92AF92BF92CF92F7
:1011B000DF92EF92FF920F931F93CF93DF936C0117
:1011C0002A01EB018901060F171F22242394E12C29
:1011D000F12C312CC017D107A1F4822DDF91CF91D2
:1011E0001F910F91FF90EF90DF90CF90BF90AF9045
:1011F0009F908F907F906F905F904F903F902F9037
:10120000089546018E0C9F1CA32CF401808190E070
:10121000032C02C0959587950A94E2F740E05FEFB2
:1012200080FF50E03E01C301B2010E944D08B301AE
:10123000A20181E194E00E9474089C01F401808184
:1012400090E002C095958795AA94E2F780FF12C0BE
:1012500080E09FEF41E02817390709F040E02422A1
:101260003394F8E03F1204C08FEFE81AF80A312CEB
:101270002196B0CF80E090E0EDCF6F927F928F9279
:101280009F92AF92BF92CF92DF92EF92FF920F9315
:101290001F93CF93DF935C01842E752E79016B0130
:1012A000912C66246394C92DD0E09E141F0480F015
:1012B000862DDF91CF911F910F91FF90EF90DF90DE
:1012C000CF90BF90AF909F908F907F906F90089538
:1012D0008E01000F111F0A0D1B1DF8014081518165
:1012E000542745275427CC0DDD1D682D772DCE01C1
:1012F0000E944D08482D572DBE0181E194E00E94C7
:101300007408AC01F801208131813227232732276C
:1013100091E02417350709F090E069229394C3CF38
:10132000DF92EF92FF920F931F93CF93DF93C82F1B
:10133000F42E052F162FD72FD22EE32E80912C04BA
:10134000811521F080912D0481113FC02091150459
:101350003091160421153105C1F1409113045091CB
:1013600014044115510589F16C2F81E194E00E942C
:101370005507C11551F1C0932D040E947502609369
:101380002E0470932F04809330049093310483EDE6
:101390009AE09093330480933204D0923404E09224
:1013A0003504809113049091140490933704809332
:1013B0003604F09238040093390410933A04D09321
:1013C0003B04109214041092130480911304909122
:1013D00014040E942E2810921404109213041092E8
:1013E000160410921504DF91CF911F910F91FF9079
:1013F000EF90DF9008950F931F9380912D04811536
:10140000A1F10E94750200912E0410912F042091E9
:10141000300430913104601B710B820B930B6134EB
:1014200072448F40910508F1E0913204F091330449
:10143000309759F040E050E060E070E084EE90E0DA
:1014400009951092330410923204809136049091E1
:1014500037040E942E2810923704109236041092FE
:1014600035041092340410922D041F910F910895A9
:10147000BC01009761F0FC0101900020E9F7319771
:10148000AF01481B590B83E694E00C940E060895B7
:101490000C94380A85E691E00C94380A4F925F92DA
:1014A0006F927F928F929F92AF92BF92CF92DF9274
:1014B000EF92FF920F931F93CF93DF93CDB7DEB7D9
:1014C000A1970FB6F894DEBF0FBECDBF762E672E64
:1014D000582E492E19A2423008F44AE08E010F5DC1
:1014E0001F4FC42ED12CE12CF12C672D762D852D8C
:1014F000942DA70196010E943D27872C962CA52CA0
:10150000B42C722E632E542E452E6A301CF5605D6D
:10151000F80162938F018C149D04AE04BF0428F778
:10152000CF010E94380AA1960FB6F894DEBF0FBE15
:10153000CDBFDF91CF911F910F91FF90EF90DF9082
:10154000CF90BF90AF909F908F907F906F905F9063
:101550004F900895695CDCCFCF92DF92EF92FF92BB
:101560006C01990FEE08FF086A307105C1F44AE07A
:10157000F7FE16C06DE283E694E00E945A046627E7
:101580007727CB016C197D098E099F094AE00E94DB
:101590004E0AFF90EF90DF90CF900C944A0A40E102
:1015A000C701B601F4CFCF93DF93EC01892B49F04B
:1015B00088E691E00E94480A60E170E0CE010E9456
:1015C000AC0A81E0DF91CF910895682F70E080E050
:1015D00090E04AE00E944E0A0C944A0A0E94380A9F
:1015E0000C944A0ACF93DF9300D000D000D0CDB73F
:1015F000DEB796E0E5E1F1E0DE01119601900D9293
:101600009A95E1F78E010F5F1F4F080F111D080F0C
:10161000111D61E08EE00E94DF0364EF71E080E065
:1016200090E00E94E40260E08EE00E94DF0364EF3D
:1016300071E080E090E00E94E402F80180819181F5
:101640000E94EE0AE6CF9C018091B3029091B40211
:1016500001969093B4028093B3024091C5025091D9
:10166000C6024115510519F04817590734F482E0B4
:1016700092E00E94EE0A80E008958091000190912E
:101680000101821793071CF484E292E0F2CF81E01B
:101690000895CF93DF9300D000D0CDB7DEB7BC0163
:1016A00004962091000130910101281739078CF030
:1016B00044E050E0CE0101960E94652769817A815D
:1016C0008B819C810F900F900F900F90DF91CF91A5
:1016D000089584E292E00E94EE0A60E070E0CB019F
:1016E000F1CF9C012E5F3F4F4091000150910101CD
:1016F0004217530714F00C94752784E292E00E947D
:10170000EE0A80E090E008953F924F925F926F92D0
:101710007F928F929F92AF92BF92CF92DF92EF9281
:10172000FF920F931F93CF93DF932B013C01EA01AC
:10173000B22ECA010197803D974008F092C0730114
:10174000C301809590958417950708F48AC0B3016A
:10175000A20181E194E00E941002892B09F481C06A
:1017600080911304909114040E942E286E0193E03E
:10177000D694C7949A95E1F7CE0187709927892B63
:1017800009F068C082E0C80ED11CD0921604C09245
:101790001504C6010E9498278C019093140480932D
:1017A000130484E090E00115110509F441C0F8012B
:1017B000B0828EEF8C0D8183C00ED11EF601129285
:1017C000C60DD71D312CC12CD12C812C912C54014C
:1017D00083943701B301A20181E194E00E9474086F
:1017E0009C01F6013296E00FF11F9081B501A40132
:1017F000032C04C0440F551F661F771F0A94D2F7AD
:1018000021153F4F59F5942B90833394E8E03E1215
:1018100004C0FFEFCF1ADF0A312C2FEFE21AF20AD1
:10182000EC16FD06B1F683E08093170480E090E0AB
:10183000DF91CF911F910F91FF90EF90DF90CF90AC
:10184000BF90AF909F908F907F906F905F904F90E0
:101850003F900895E3E0CE0ED11C97CF409594239E
:10186000D3CF83E090E0E4CFBF92CF92DF92EF92AC
:10187000FF920F931F93CF93DF936B017C018A013B
:10188000B22ECA0101978D37910508F043C0C701F8
:101890008095909584179507E8F1B701A60181E13D
:1018A00094E00E941002892BC1F180911304909161
:1018B00014040E942E28E8012196CC0FDD1FD0933E
:1018C0001604C0931504CE010E949827FC01909342
:1018D00014048093130484E090E0309789F0B08280
:1018E000C250C183BF016E5F7F4FA701960181E1A6
:1018F00094E00E948E0883E08093170480E090E0DB
:10190000DF91CF911F910F91FF90EF90DF90CF90DB
:10191000BF90089583E090E0F3CF82E090E0F0CFB5
:10192000CF93DF93C82FD62F809113049091140486
:101930000E942E2882E090E0909316048093150474
:101940000E949827FC01909314048093130481E073
:10195000309721F0C058C083D18383E0809317046F
:10196000DF91CF9108952F923F924F925F926F92A5
:101970007F928F929F92AF92BF92CF92DF92EF921F
:10198000FF920F931F93CF93DF93CDB7DEB7689786
:101990000FB6F894DEBF0FBECDBF3C01DC019C91B9
:1019A00011962D903C90129711962D913D914D914D
:1019B0005C9114972D8B3E8B4F8B588F922C832CE0
:1019C00011968C91119713964D905C901497B42CAE
:1019D000A52CEFEFE90FE73108F06AC4F0E0EC5115
:1019E000F74D0C945F27E0911B04F0911C04B3E0C9
:1019F0007B2E612CC72C79826A8274019C828B8237
:101A00008501BE82AD82D12C2F81388549855A85CA
:101A10006B857C8586E090E00995BC01892BE1F01F
:101A200086E090E068960FB6F894DEBF0FBECDBF9B
:101A3000DF91CF911F910F91FF90EF90DF90CF90AA
:101A4000BF90AF909F908F907F906F905F904F90DE
:101A50003F902F900C94900C63E070E080E090E059
:101A6000C401A5010E944D08811103C062E070E02D
:101A7000D7CF43E050E060E070E0B40181E194E052
:101A80000E94740864E070E0A816B90649F682E086
:101A900080931704E0911D04F0911E0479826A82FC
:101AA00074019C828B828501BE82AD82D12C2F81F4
:101AB000388549855A856B857C8586E090E0099557
:101AC000F1C2E0911B04F0911C04A3E07A2E612C7A
:101AD000C72C79826A8274019C828B828501BE82C6
:101AE000AD82D12C2F81388549855A856B857C85BF
:101AF00083E090E00995BC01892B19F083E090E028
:101B000091CF63E070E080E090E0C40123E030E03A
:101B1000A5010E94340CBC01892B81F7E0911D04C2
:101B2000F0911E0479826A8274019C828B82850105
:101B3000BE82AD82D12C2F81388549855A856B852F
:101B40007C8583E090E0BBCFE0911B04F0911C0406
:101B500083E0C82E89831A8274019C828B8285015E
:101B6000BE82AD82D12C2F81388549855A856B85FF
:101B70007C8580E190E009952C01BC01892BA9F4BA
:101B8000C50101978D37910570F4C401809590953A
:101B90008A159B0540F0F3012581C501880F991F27
:101BA0002817190629F063E070E080E190E03ACF51
:101BB00023E030E03E872D87A401440D551D588B4E
:101BC0004F874D855E856F85788981E194E00E941D
:101BD0001002892B19F462E070E0E7CF5FEF451A3D
:101BE000550AA414B50421F743E050E060E070E02A
:101BF000B4019501C30106960E943D09811103C0FD
:101C000064E070E0D2CF80911304909114040E949C
:101C10002E2885E090E090931604809315040E948E
:101C20009827FC019093140480931304892B31F0BE
:101C300080E18083328221821382A48283E08093B8
:101C40001704E0911D04F0911E04C82E89831A82A6
:101C500074019C828B828501BE82AD82D12C2F8142
:101C6000388549855A856B857C8580E190E027CF52
:101C7000E0911B04F0911C041A82198274019C8269
:101C80008B828501BE82AD82C12CD12C2F813885FB
:101C900049855A856B857C8581E090E00995BC017A
:101CA000892B19F081E090E0BDCE60E070E0CB01BF
:101CB000C40121E030E0A5010E94840BBC01892B06
:101CC00089F7E0911D04F0911E041A8219827401B3
:101CD0009C828B828501BE82AD82C12CD12C2F814A
:101CE000388549855A856B857C8581E090E0E7CE13
:101CF000E0911B04F0911C0477247394612CC72C91
:101D000079826A8274019C828B828501BE82AD8257
:101D1000D12C2F81388549855A856B857C8582E059
:101D200090E00995BC01892B19F082E090E07ACE11
:101D300061E070E080E090E0C40122E030E0A501C5
:101D40000E94840BBC01892B81F7E0911D04F09166
:101D50001E0479826A8274019C828B828501BE8214
:101D6000AD82D12C2F81388549855A856B857C853C
:101D700082E090E0A4CEE0911B04F0911C0472E09C
:101D8000772E612CC72C79826A8274019C828B82A7
:101D90008501BE82AD82D12C2F81388549855A8537
:101DA0006B857C8584E090E00995BC01892B19F056
:101DB00084E090E037CE62E070E080E090E0C40123
:101DC00024E030E0A5010E94340CBC01892B81F78E
:101DD000E0911D04F0911E0479826A8274019C8254
:101DE0008B828501BE82AD82D12C2F8138854985B9
:101DF0005A856B857C8584E090E061CEE0911B0480
:101E0000F0911C041A82198274019C828B828501D4
:101E1000BE82AD82C12CD12C2F81388549855A854F
:101E20006B857C8585E090E00995BC01892B19F0D4
:101E300085E090E0F7CD8FEF4816510421F063E084
:101E400070E04528A9F760E070E0CB01C401A5016E
:101E50000E944D0862E070E0811551F340E050E0CF
:101E6000BA01B40181E194E00E947408A816B90691
:101E700019F064E070E0DCCF82E080931704E09119
:101E80001D04F0911E041A82198274019C828B82B7
:101E90008501BE82AD82C12CD12C2F813885498528
:101EA0005A856B857C8585E090E009CEE0911B0426
:101EB000F0911C041A82198274019C828B82850124
:101EC000BE82AD82C12CD12C2F81388549855A859F
:101ED0006B857C858FE090E009952C01BC01892BF6
:101EE000F9F4C50163E0969587956A95E1F7950148
:101EF00027703327232B09F00196950121503109D2
:101F0000203D374058F49401209530952A153B0523
:101F100028F0F30125812817190629F063E070E005
:101F20008FE090E07FCD1A8A198A9401240D351D27
:101F30003C8B2B8B49895A896B897C8981E194E0A0
:101F40000E941002892B19F462E070E0E9CF3FEFA4
:101F5000431A530AA414B50431F740E050E0BA0123
:101F6000B4019501C30106960E94CD08811103C0FA
:101F700064E070E0D5CF80911304909114040E9426
:101F80002E2885E090E090931604809315040E941B
:101F90009827FC019093140480931304892B51F02B
:101FA0008FE080838D899E89AF89B88D81839283EC
:101FB000A383B48383E080931704E0911D04F09120
:101FC0001E041A82198274019C828B828501BE8252
:101FD000AD82C12CD12C2F81388549855A856B85DE
:101FE0007C858FE090E06BCD99EF980F63E070E017
:101FF0009F3EB0F5F301329667E00E94312740E042
:1020000092E0638174817627672776272581368160
:102010003227232732275081563019F46031774216
:1020200018F062E070E01CC02F5F3F4F220F920F4C
:1020300037964F5F8413E5CF009113041091140479
:10204000A92EB12CC5010E94982790931404809367
:102050001304892B41F4C8010E942E2864E070E02B
:1020600084E190E0DFCCB0921604A0921504C80180
:102070000E942E28D6CF97EF980F63E070E0933F31
:1020800058F493012E5F3F4F860D972D911D281711
:10209000390728F462E070E085E190E0C3CC82E08B
:1020A0008093170468960FB6F894DEBF0FBECDBFBD
:1020B000DF91CF911F910F91FF90EF90DF90CF9024
:1020C000BF90AF909F908F907F906F905F904F9058
:1020D0003F902F900895F3016580768076246724E1
:1020E0007624E0911B04F0911C0453E0352E212C42
:1020F000C32C39822A8274019C828B828501BE8224
:10210000AD82930178866F82D12C49855A856B8583
:102110007C8586E190E00995BC01892B19F086E168
:1021200090E080CC43E050E060E070E0B40181E1F9
:1021300094E00E9474082301482659264A205B2017
:102140004624572463E070E080E090E0C401A201DF
:102150000E944D0862E070E0811509F343E050E011
:1021600060E070E0B40181E194E00E9474084816D8
:10217000590619F064E070E0D2CF82E08093170432
:10218000E0911D04F0911E0439822A8274019C8220
:102190008B828501BE82AD82930178866F82D12CBD
:1021A00049855A856B857C8586E190E088CC1596BB
:1021B0002D903C90169732242324322417964D906C
:1021C0005C90542445245424E0911B04F0911C0499
:1021D00043E0C42EC9821A8274019C828B828501DD
:1021E000BE82AD8223E02F831886A1013A8629861C
:1021F000B2015C864B86D12C30E087E190E00995F6
:10220000BC01892B19F087E190E00CCCC501019746
:102210008D37910598F4C20101978D37910570F4BF
:10222000C401809590958A159B0540F0F3012185A6
:10223000C201880F991F2817190619F063E070E092
:10224000E2CF43E050E060E070E0B1019201C301F1
:102250000A960E943D0964E070E08115A1F263E0F6
:1022600070E080E090E0C40127E130E0A5010E9429
:10227000340CBC01892B39F6E0911D04F0911E0449
:1022800083E0C82EC9821A8274019C828B828501E8
:10229000BE82AD8223E02F831886A1013A8629866B
:1022A000B2015C864B86D12C30E087E190E007CC10
:1022B00061E070E0892F90E0B5CBBF92CF92DF92C2
:1022C000EF92FF920F931F93CF93DF93B82E7B0172
:1022D0006A01890180911304909114040E942E28B0
:1022E000E8012396CC0FDD1FD0931604C09315048C
:1022F000CE010E949827FC0190931404809313044C
:10230000892BB1F481E08093170443E050E060E052
:1023100070E0B70120E030E08B2DDF91CF911F916D
:102320000F91FF90EF90DF90CF90BF900C949009A9
:1023300080E180839E2D8F2D92838183138204837D
:10234000C650C583D6018D919C91119798278927F6
:1023500098279783868302301105B9F612968D91DE
:102360009C9198278927982791878087CECFFF92C5
:102370000F931F93CF93DF938C01EB01F42E809189
:102380001304909114040E942E2885E090E090930D
:102390001604809315040E949827FC01909314045E
:1023A00080931304892B49F481E080931704DF9113
:1023B000CF911F910F91FF900895F0821027012770
:1023C000102712830183DC27CD27DC27D483C38326
:1023D000EECFAF92BF92CF92DF92EF92FF920F9328
:1023E0001F93CF93DF93CDB7DEB728970FB6F8943E
:1023F000DEBF0FBECDBF80911F0490912004DC0191
:10240000ED91FC910084F185E02D09952091150452
:102410003091160428173907C8F480911F04909151
:102420002004DC01ED91FC910084F185E02D0995FB
:1024300090931604809315040E94750260932804FB
:102440007093290480932A0490932B0480912C0488
:102450002091150430911604232BA9F4811509F459
:10246000C4C028960FB6F894DEBF0FBECDBFDF9173
:10247000CF911F910F91FF90EF90DF90CF90BF9081
:10248000AF900C94FB09811509F457C00E947502A6
:10249000009128041091290420912A0430912B04E2
:1024A000601B710B820B930B009124041091250487
:1024B0002091260430912704601771078207930743
:1024C00008F493C080911F0490912004DC01ED91E9
:1024D000FC910284F385E02D099580933E042091C0
:1024E00015043091160421503109309316042093BD
:1024F000150490912C04911189C011E0811509F403
:1025000090C090912D04891709F488C08091190416
:1025100090911A0410E0892B09F083C08091150472
:10252000909116041817190608F490C0109216041A
:102530001092150480912C0491CF0E9475026B01BA
:102540007C010E947502A0911F04B0912004ED91BE
:10255000FC911197009128041091290420912A04DC
:1025600030912B04601B710B820B930B00912404A0
:1025700010912504209126043091270460177107DB
:102580008207930708F09ECF0084F185E02DCD01EE
:102590000995209115043091160428173907C8F4BD
:1025A00080911F0490912004DC01ED91FC91008446
:1025B000F185E02D099590931604809315040E94EF
:1025C0007502609328047093290480932A049093E1
:1025D0002B040E9475026C197D098E099F09613ACE
:1025E00076488140910508F4ACCF28960FB6F89450
:1025F000DEBF0FBECDBFDF91CF911F910F91FF9036
:10260000EF90DF90CF90BF90AF90089511E0909140
:102610002D04911101C010E0811173CF111509F43F
:1026200075CF80911304909114040E942E288091FC
:102630001504909116040E94982790931404809397
:10264000130400E0892BB1F510E019C080911F043C
:1026500090912004DC01ED91FC910284F385E02D42
:1026600009951F5F5BCF80911F0490912004DC01CE
:10267000ED91FC910284F385E02D09951F5F809117
:102680001504909116041817190668F34FCF80911E
:102690001F0490912004DC01ED91FC910284F385EC
:1026A000E02D0995E0911304F0911404EE0DFF1D47
:1026B00080830F5FE02EF12C809115049091160419
:1026C0000817190620F3E0901304F09014046C012D
:1026D000B2E0CB1AD108F701EC0DFD1D20818E0D63
:1026E0009F1DFC01A290B22ED0921604C092150438
:1026F00000913E044C2DB701802F0E943207A8168E
:10270000B90609F040C087EE80931704E0911904E0
:10271000F0911A04309709F435C180912C0491E0AE
:1027200089270A838983AE014F5F5F4F6C2DC701F4
:10273000099580931704111521F1A0911304B0910C
:10274000140480912C04811129C080911704875EA4
:102750008230C8F4CD010E94B30C60913E04611533
:1027600009F494C080911704813069F040911304FA
:10277000509114042091150481E194E00E945507C2
:1027800002C0883ED1F280911304909114040E94FB
:102790002E281092140410921304C8CEFC9020919D
:1027A000360430913704F90180819F2D9F7798136B
:1027B0006DC080911704875E823008F045C000919B
:1027C00034041091350440913804509139046091DB
:1027D0003A0470913B04F7FE05C011968C918093EA
:1027E000170432C0F91611F082EEF9CF10921704D7
:1027F00023813481322723273227EFEFEF0DE73192
:1028000008F0BEC0F0E0E550F74D0C945F2711963C
:10281000EC911197C901880F991FE817190621F744
:1028200012960115110569F4CD010E943D090CC0F5
:10283000F8018D919D9198278927982781939193ED
:102840008F0121503109A0F7E0913204F091330457
:10285000309761F08091170440E050E060E070E054
:1028600090E009951092330410923204809136045E
:10287000909137040E942E2810923704109236044B
:10288000109235041092340410922D0481E080934C
:10289000170479CFF90183E0F695E7958A95E1F77A
:1028A0008E2F790197E0E922FF24EF2811F081E0D3
:1028B0008E0F11969C911197981396CF01151105C3
:1028C00001F1B801620F731F40E050E030E0601783
:1028D000710709F4B9CFCD01840F951FFC018281E6
:1028E00090E0032E02C0959587950A94E2F78170D7
:1028F000F80181938F013F5F383049F74F5F5F4F99
:10290000E5CFCD0102960E94CD089ECF11968C9105
:10291000119799EF980F9F3E10F083E060CF7D01F3
:10292000F2E0EF0EF11C6D01C80ED11CEC14FD0499
:1029300008F08ACFD70111968C911197863069F7EC
:102940008C9199EF980F9F3E40F7482F50E08E0DE5
:102950009F2D911DC816D90600F3B7016E5F7F4FFA
:10296000C8010E94BF28F701808190E00196E80E1F
:10297000F91ED7018C918150990B080F191FD6CFE2
:1029800081EE2DCF1111D9CEFECECF93C82F8091DD
:102990002D04811111C08C2F90E0AC01440F551F04
:1029A000455F5B4F8E599E4F21E030E069E573EC47
:1029B000FC0180810E945D1180912D04811125C050
:1029C0000E94D406811551F18EE492E00E94480ADB
:1029D0006C2F70E080E090E04AE00E944E0A86E5AD
:1029E00092E00E94480AEC2FF0E0EE0FFF1FE55F37
:1029F000FB4F6081718180E090E04AE00E944E0AC6
:102A00008BE592E0CF910C94EE0A0E94E91165E00B
:102A100070E080E090E00E94E402CECFCF91089574
:102A2000CF93DF93C82F80912D0481111AC0EC2F12
:102A3000F0E0EE59FE4FD08141E050E060E170E0FF
:102A400080E290E00E94B71180E1C89F90011124BC
:102A500025523C4F40E050E060E270E08D2F0E9434
:102A6000900980912D04811103C0DF91CF910895C9
:102A70000E94E91165E070E080E090E00E94E402CD
:102A8000F0CF8F929F92AF92BF92CF92DF92EF9250
:102A9000FF92CF936B017C01C42FA7019601C70160
:102AA000B6010E942C27811569F082E692E0CF9151
:102AB000FF90EF90DF90CF90BF90AF909F908F905E
:102AC0000C94380AC701B6010E94B526892B19F06B
:102AD00086E692E0ECCF2FEF3FEF4FE75FE4C701D0
:102AE000B6010E94B02618161CF48AE692E0DFCFE9
:102AF0002FEF3FEF4FE75FECC701B6010E947A2549
:102B000087FDF3CF20E030E0A901C701B6010E94A4
:102B10007A2587FF09C06DE283E694E00E945A049B
:102B2000F7FAF094F7F8F094B12CB0E0A0E0F0E000
:102B3000EFE3CB1132C0A70196016B2F7A2F8F2FB5
:102B40009E2F0E940E256B017C010E94F8254B01EF
:102B50005C014AE00E944E0AC115A9F0B401C5010A
:102B60000E9427269B01AC01B601C7010E940D25DA
:102B7000F62EE72ED82EC92E6EE283E694E00E9450
:102B80005A04C1111AC0CF91FF90EF90DF90CF90FF
:102B9000BF90AF909F908F90089520E030E040E28A
:102BA00051E46B2F7A2F8F2F9E2F0E947F25B62FF7
:102BB000A72FF82FE92FB394BCCF20E030E040E2FC
:102BC00051E46F2D7E2D8D2D9C2D0E94BF266B0113
:102BD0007C010E94F8254B01A12CB12C4AE0C501D3
:102BE000B4010E944E0AC501B4010E9427269B0130
:102BF000AC01B601C7010E940D25F62EE72ED82E96
:102C0000C92EC150BECF4F925F926F927F92AF920A
:102C1000BF92CF92DF92EF92FF920F931F93CF93C9
:102C2000C82FE82EF12C44E0849F80011124F80184
:102C3000E95AFB4F20E030E04AE754E460817181BB
:102C4000828193810E94BF265B016C0120E030E00D
:102C5000A9010E94B02620E030E040E05FE3B5012A
:102C600087FD6BC0C6010E940E255701AA0CBB1C34
:102C7000AA0CBB1CF501E55BFB4F6F01462E572EDE
:102C80003C01C301B2010E94F125F601608371830A
:102C900082839383D801A55BBB4F12968D919C9143
:102CA0001397F801E15CFB4F918380838D919C9198
:102CB0009383828380912D0481110DC0A501415C15
:102CC0005B4FF701EE59FE4F22E030E065ED7BE00F
:102CD00080810E945D1180912D04811132C00E947B
:102CE000D4068115B9F18EE692E00E94480A6C2F55
:102CF00070E080E090E04AE00E944E0A86E592E0B3
:102D00000E94480AF801E95AFB4F60817181828173
:102D1000938142E00E9441158BE592E0CF911F9193
:102D20000F91FF90EF90DF90CF90BF90AF907F908A
:102D30006F905F904F900C94EE0AC6010E940D2593
:102D400094CF0E94E91165E070E080E090E00E947D
:102D5000E402C1CFCF911F910F91FF90EF90DF90D0
:102D6000CF90BF90AF907F906F905F904F900895FD
:102D700042E00E9441150C944A0ACF92DF92EF92F2
:102D8000FF920F931F93CF93DF9300D000D0CDB766
:102D9000DEB76B017C018091C9029091CA020E944A
:102DA000490B0091C9021091CA029601A7010E9425
:102DB0007A2598012C5F3F4F8115C1F0A601B7011C
:102DC00049835A836B837C83C9010E94230B81153D
:102DD00039F044E050E0B801CE0101960E947B2713
:102DE0002091C9023091CA022C5F3F4F3093CA0232
:102DF0002093C9020F900F900F900F90DF91CF9109
:102E00001F910F91FF90EF90DF90CF9008951F9248
:102E10001FB61F9211242F933F938F939F93AF93CD
:102E2000BF938091C7039091C803A091C903B0914B
:102E3000CA033091C60323E0230F2D3750F50196C6
:102E4000A11DB11D2093C6038093C7039093C803AF
:102E5000A093C903B093CA038091C2039091C303A6
:102E6000A091C403B091C5030196A11DB11D80932B
:102E7000C2039093C303A093C403B093C503BF914F
:102E8000AF919F918F913F912F911F901FBE1F90E7
:102E9000189526E8230F0296A11DB11DD3CF2F93BD
:102EA0002FB72F938F939F93EF93FF93E09132036C
:102EB000F09133038081E0913803F091390382FD72
:102EC00019C0908180913B038F5F8F7320913C03E9
:102ED000821741F0E0913B03F0E0EE5DFC4F958FEF
:102EE00080933B03FF91EF919F918F912F912FBF83
:102EF0002F9118958081F6CF1F920F920FB60F92E7
:102F000011242F933F934F935F936F937F938F93EE
:102F10009F93AF93BF93EF93FF9382E293E00E945E
:102F20007004FF91EF91BF91AF919F918F917F912D
:102F30006F915F914F913F912F910F900FBE0F9026
:102F40001F9018951F920F920FB60F921124CF92D7
:102F5000DF92EF92FF920F931F932F933F934F9324
:102F60005F936F937F938F939F93AF93BF93EF93F1
:102F7000FF93CF93DF93CDB7DEB76C97DEBFCDBFA6
:102F80001092E9008091E80083FF30C08E010B5E53
:102F90001F4F68E0C8010E94760582EF8093E80029
:102FA0008D89E02ED12E87FF12C09091E80090FF0E
:102FB000FCCF982F907691112BC12F89388DEE89F7
:102FC000EA3088F4F0E0EE5EF64D0C945F279EEF59
:102FD0009093E800EECF803841F580911C038093F8
:102FE000F1001092F1008EEF8093E8006C960FB61E
:102FF000F894DEBF0FBECDBFDF91CF91FF91EF916F
:10300000BF91AF919F918F917F916F915F914F9100
:103010003F912F911F910F91FF90EF90DF90CF90F4
:103020000F900FBE0F901F9018951092F100D9CFFE
:103030008111D9CF21303105B1F680911C038D7FEC
:1030400080931C03D0CF8111CECF2130310559F6AA
:1030500080911C038260F4CF8091E80080FFFCCF58
:103060008F8980688093E300BECFF88C0B8D1C8D18
:1030700022E01092E9001092200310921F03F21236
:103080002EC010921E0310921D030E9401071F8282
:1030900099E09983FA8291E09E8390EA98879AEF6B
:1030A000998720911F0330912003275F3F4F3C8376
:1030B0002B838D831092E9001092200310921F033E
:1030C00010931E0300931D0349E050E0BE016F5FA3
:1030D0007F4F80E00E94E3060E94010784CF109397
:1030E0001E0300931D030E94E505DC0112960D915D
:1030F0001C910115110531F4F1E0FF1214C06AEBC7
:1031000072E05AC0D801ED91FC910480F581E02D68
:103110006E2D7D2DC8010995009709F037C1F80182
:1031200000851185E6CFF3E0FF120EC08F8981156F
:1031300009F440C0823061F440E86DE08CED92E02B
:103140000E94B20581114FCF81E28093EB004ECFF8
:10315000813029F440E86BE080ED92E0F1CF8330DC
:1031600099F70E94E505DC011296ED90FC908E0126
:103170000F5F1F4F6801E114F10469F4D8011C923C
:10318000F60101900020E9F73197BF016C197D0924
:1031900040E0C601D5CFD701ED91FC910680F781C3
:1031A000E02DB801C7010995080F111DF701E08452
:1031B000F184E1CF6CEC72E0FB01449150E080E8D7
:1031C0000E94E30610CF81E08093F1000CCF837062
:1031D0008111BACFE4E5F1E081E021E036E391919D
:1031E000911569F08093E9002093EB00DF019E9137
:1031F0009093EC003093ED008F5F873081F78EE77E
:103200008093EA001092EA008F898093C103EBCE8D
:103210008B8D9C8D1092E9001092200310921F0359
:1032200090931E0380931D03898D811195C08E8913
:103230009D89913A49F4813209F086CF47E050E008
:1032400067E071E080E0BCCF913209F07DCF83323E
:1032500069F48F89988DA0E0B0E08093030190938A
:103260000401A0930501B0930601BDCE803269F43C
:103270008091E80082FFFCCF67E087E091E00E9448
:1032800076058BEF8093E800AECE823209F0ABCEAC
:103290008F8980930E01EEEFFFE7859195918B3F2B
:1032A0009C4D51F1E0E0F8E0809107019091080118
:1032B000A0910901B0910A01803B9440A105B1059C
:1032C000F1F480910E0180FD1AC0EE3F8AE0F8070C
:1032D00091F587E797E791838083809160008093E1
:1032E0001B0388E19BE00FB6F894A89580936000DB
:1032F0000FBE9093600077CEEEEFFAE0D5CF8081DD
:1033000091818737974709F06ECEA895809160002C
:1033100088618093600080911B0380936000EE3F82
:10332000FA40A9F08091FE0A9091FF0A909301085B
:103330008093000858CE809100089091010887374B
:10334000980739F29093FF0A8093FE0AC2CF109239
:10335000FF0A1092FE0A47CE0E94E505DC01129694
:103360000D911C910115110509F4EECED801ED91D6
:10337000FC910190F081E02D6E2D7D2DC801099505
:10338000811131CEF80100851185ECCF0CF02BCEE8
:10339000DBCE1F921FB61F9211248F939F938091B3
:1033A000E1009091E100937F9093E10083FF0FC0D3
:1033B0001092E90091E09093EB001092EC0092E300
:1033C0009093ED001092C10398E09093F00082FF7B
:1033D00022C093E09093E9009091F200911519F0CA
:1033E0009AE39093E8009091BF03911541F090917A
:1033F000BF0391509093BF03911101C05D989091CC
:103400002103911541F09091210391509093210354
:10341000911101C0289884FF17C08091E2008E7E30
:1034200081608093E2008091E1008F7E8093E100D3
:103430008091C0038E7E80618093C0039F918F91A5
:103440001F901FBE1F90189580FFF8CF8091E2005B
:103450008E7E80618093E2008091E1008E7E809379
:10346000E1008091C0038E7E8160E6CFCF93DF9331
:10347000C2EDD3E08C819D810E942E288E819F8198
:103480000E942E288091130490911404DF91CF9113
:103490000C942E28CDB7DEB765970FB6F894DEBF33
:1034A0000FBECDBF789484B5826084BD84B5816041
:1034B00084BD85B5826085BD85B5816085BD8091FF
:1034C0006E00816080936E00109281008091810077
:1034D000826080938100809181008160809381006F
:1034E0008091800081608093800080919100826053
:1034F00080939100809191008160809391008091F0
:1035000090008160809390008091C10084608093DE
:10351000C1008091C10082608093C1008091C10090
:1035200081608093C1008091C30081608093C3005B
:103530008091C00082608093C0008091C200816051
:103540008093C20080917A00846080937A00809199
:103550007A00826080937A0080917A008160809303
:103560007A0080917A00806880937A001092C1037B
:1035700010921C031092C0038091D7008160809349
:10358000D70080EA8093D80089B5806189BD89B56C
:10359000826089BD89B5282F21702B8B80FFFACFDF
:1035A00061E070E080E090E00E94E4028091D80049
:1035B0008F7C80618093D8008091E000807F809331
:1035C000E0008091E1008E7E8093E1008DE08093A9
:1035D000E200559A209A5D9828980FE311E01A822C
:1035E0001982D8016D918D018091190390911A0370
:1035F0004FEFE981FA818E0F9F1F0E94720329818C
:103600003A812A5E3F4F3A832983203B310549F7AF
:103610008FEF9FEF9093700480936F04E0913203DB
:10362000F091330382E08083E0912E03F0912F0329
:103630001082E0913003F09131038FEC808310927F
:103640003A03E0913603F091370386E28083E091FC
:103650003403F0913503808180618083E0913403ED
:10366000F0913503808188608083E0913403F0918C
:103670003503808180688083E0913403F0913503C5
:1036800080818F7D808383E08093020161E08EE002
:103690000E94380387EA9FE0A0E0B0E08093240412
:1036A00090932504A0932604B093270482E293E02C
:1036B0009093200480931F0481E080932C048091D8
:1036C000C1029091C2022091C3023091C402281716
:1036D000390779F41092C2021092C1021092C4020A
:1036E0001092C30280E094E0909301018093000166
:1036F0000BC09093C4028093C3028130944094F332
:1037000086E792E00E94EE0A8CE291E09093C60276
:103710008093C5028091C7029091C8029093CA021B
:103720008093C9023BE4C32E34E0D32E4FE3642ED2
:1037300044E0742E5BE0252E54E0352E6BEDE62E32
:1037400063E0F62E812C912C5401898254E0598B30
:1037500068EE73E080E090E00E94E40289810E94BC
:10376000101549894150498B411103C082E00E94E4
:10377000F20AD7018C91811559F311968C9181151C
:1037800039F39D8A8C8AF40124E0EE0FFF1F2A95FD
:10379000E1F7E552FC4F8381811511F080E0E7CF1E
:1037A0008385811509F498C580912D0481111CC071
:1037B000F401EE59FE4F108143E050E061E070E00B
:1037C00089E593EC0E94B711E3E0F0E0FE87ED8716
:1037D00029E533EC388B2F8791014D855E856F8508
:1037E0007889812F0E94900980912D04811162C5F2
:1037F0000E94D4068115F1F08EE492E00E94480AFE
:103800004AE0C501B4010E944E0A86E592E00E949A
:10381000480AEC89FD89EE0FFF1FE55FFB4F6081D1
:10382000718180E090E04AE00E944E0A84EA92E0D2
:103830000E94EE0A80912D0481111DC0EC89FD8942
:10384000EE59FE4F108143E050E062E070E085EDFC
:103850009BE00E94B71143E050E05A87498785ED0D
:103860009BE09C878B87930149855A856B857C8576
:10387000812F0E94900980912D04811124C50C890B
:103880001D89000F111F000F111FF801E55BFB4F91
:10389000D801A15CBB4F8D919C911197938382833A
:1038A00012968D919C9191838083D6016D917D912B
:1038B0008D919C910E94272620E030E04AE754E455
:1038C0000E947F25698B472E582E9A8BF801E95A62
:1038D000FB4F862F942DA52DBA8980839183A283D7
:1038E000B3830E94D4068115C1F08EE692E00E9457
:1038F000480A4AE0C501B4010E944E0A86E592E0FA
:103900000E94480A42E06989742D852D9A890E9497
:10391000411584EA92E00E94EE0A81E08093F5026C
:10392000EC89FD89EE59FE4F108145E050E060E0E2
:103930007FEF80E490E00E94B7111E821D82E0E4D8
:10394000F0E0F887EF8320E030E04D815E816F8109
:103950007885812F0E94900980912D04811109C5DD
:1039600089810E94E50A0C891D89000F111F000F33
:10397000111FF801E752FD4F6081718182819381AF
:103980000E94B816F801E95AFB4F6081718182816B
:1039900093810E94B8162C893D89220F331F255F21
:1039A0003B4FD9016D917C9180E090E04AE00E940C
:1039B0004E0A0E944A0A0E944A0A0E9469026093C3
:1039C000F1027093F2028093F3029093F4020E944A
:1039D00069026093D5027093D6028093D7029093C8
:1039E000D802B0E1EB0EF11CE4E0CE0ED11CFFEFEB
:1039F0008F1A9F0AAF0ABF0A24E0620E711C32E0E0
:103A0000230E311C43E084169104A104B10409F093
:103A10009CCE712C6624639496E1979DC00111247D
:103A20009E838D83A0911903B0911A032D01480E36
:103A3000591EF20143816281C2010E9472030E94F9
:103A40007502D2011F968D909D90AD90BC905297BB
:103A500019962D913C916901E12CF12CAB01BC012F
:103A6000481959096A097B092417350716061706EC
:103A700008F092C0D501C4018C0D9D1DAE1DBF1D67
:103A8000F2018787908BA18BB28B8181982F9D7FCC
:103A9000911511F08930B1F4D20112968C918115F3
:103AA00021F00E940E04F2018683D20113968C91BC
:103AB000811541F00E940E04982F990FF201868122
:103AC000890F8683D20111962C9111972A3F39F4E0
:103AD0001496ED91FC911597808116968C93F201C6
:103AE000858981FF03C0968190959683D201539674
:103AF000EC9053975496EC92E2E02A3F09F4E8E008
:103B00008E2E912CF2019681A92FB0E0F7800F2D17
:103B100010E020E030E0B801022E02C075956795F4
:103B20000A94E2F761707727F201B3886D01022EE3
:103B300002C0D594C7940A94E2F7C0FE23C4672B51
:103B400099F0608570E0022E02C0759567950A9421
:103B5000E2F760FF09C041E050E0022E01C0440FCF
:103B60000A94EAF74B29438B2F5F3F4F28153905FD
:103B700094F2D20153962C9153972170E0FE19C410
:103B8000211104C08F7B806855968C93D2011896C2
:103B9000FC92189717969C93F201858987FF1AC0AB
:103BA0008F77858B8389848BC2010E949A02872D2F
:103BB00090E0880F991FFC01E75FFC4F2CEB2083FE
:103BC00032E03183FC01E750FD4F4CE0408311822D
:103BD0006092F8026CEB72E0C2010E94A6028115AD
:103BE00089F0872D90E0FC01EE0FFF1FE75FFC4F8F
:103BF00056E45083118262E0761620F48A509D4F7D
:103C0000DC016C928091F602811509F478C48091F0
:103C1000F702811509F473C41092F8021092F502AC
:103C20000E9469026093F1027093F2028093F302A2
:103C30009093F4020E9469020091ED021091EE024D
:103C40002091EF023091F002015F1F4F2F4F3F4F45
:103C5000061717072807390708F074C0E0EBF2E0F1
:103C6000949180917B00292F220F220F25FB85F94B
:103C700080937B00809102018295880F880F807C61
:103C80009770892B80937C0080917A008064809368
:103C90007A0080917A0086FDFCCF209178003091E7
:103CA00079003A8329833093EC022093EB020E943F
:103CB00069026093ED027093EE028093EF0290939D
:103CC000F0020091D6031091D7038091D503FF2411
:103CD000F394F80EF092D50334E0839FC0011124D1
:103CE000080F191F49815A81BA01550F880B990B8A
:103CF0000E942926D8016D937D938D939C931397F1
:103D00009091D303F91610F01092D5038091D4034B
:103D1000891718F48F5F8093D4031092D203809197
:103D2000EA028F5F8093EA026AE070E089819A81FB
:103D30000E94AC0A6091E90266256093E9028EE078
:103D40000E94DF03E0911903F0911A03FA83E983DB
:103D500060EA7FE0CF010E94A602811509F449C103
:103D600009811A810A5E1F4F60EA7FE0C8010E9444
:103D7000A602811509F43DC189819A810E949A02A7
:103D8000C8010E949A0260E08EE00E94DF03409129
:103D9000D403411509F4A7C38091D203811115C042
:103DA00001E010E019861A864091D4038090D80370
:103DB0009090D903A090D603B090D70304171105B3
:103DC00008F4FFC281E08093D2032091D6033091A2
:103DD000D703A091D803B091D903842F8695A80F5B
:103DE000B11DEC9154E0E59FF0011124E20FF31FA7
:103DF0006081698371818281938140FD19C04E91F8
:103E0000A4E04A9FA0011124240F351FF90120814D
:103E10003181428153816B017C01C701B6010E944F
:103E20000E2520E030E040E05FE30E94BF2669837A
:103E30000981172F9C01C901B8010E94F1256B016E
:103E40007093EC026093EB02072E000C880B990B29
:103E50000E94292620E030EC4FE754E40E947F25A1
:103E60002AE037ED43E250E40E94BF2626E636E61C
:103E700047EC52E40E947F252FE632E143E85BE302
:103E80000E940D2520E030E048EC51E40E94BF265E
:103E90002FE632E143E85CE30E947F2520E030E03A
:103EA000A9010E940E256093E5027093E6028093BB
:103EB000E7029093E8026AE070E0C6010E94AC0A53
:103EC0008091EA020E94E50A6091E5027091E602A3
:103ED0008091E7029091E8020E94B8161092EA02DF
:103EE00037E5E32E34E0F32E09ED12E027E431E06C
:103EF0003A8729874BE054E05A834983D12C212CFF
:103F0000312C48E4442E42E4542ED7012D923D92A8
:103F10004D925D927D01F8011192119211921192D0
:103F20008F018090E5029090E602A090E702B090A9
:103F3000E80220E030E0A901C501B4010E94B026EA
:103F400087FDDBC220E030E048E452E4C501B40163
:103F50000E947A2518160CF4D0C2A985BA852D9135
:103F60003D914D915D91BA87A987C501B4010E9429
:103F7000BF2620E03CEF4FE756E40E94BF2620E03A
:103F800030E048E452E40E947F25962EA72EB82EFA
:103F9000C92E20E030E0A9010E94B02620E030E0E8
:103FA00040E05FE3692D7A2D87FDA2C28B2D9C2D09
:103FB0000E940E250E94F125E981FA816193719397
:103FC000FA83E9838D2D0E9403168D2D0E94C5145E
:103FD000D394F3E0DF1299CF0E9469026093D50277
:103FE0007093D6028093D7029093D80281E0809399
:103FF000F502E0911903F0911A032D813E81E20F41
:10400000F31F858986FF22C08F7B858B8389848BF4
:10401000472D50E05A83498352E0751660F4A98118
:10402000BA81A553BD4F6C92A981BA81AA50BD4FE8
:104030001C921092EA02CF010E949A0289819A8111
:1040400083539D4FDC011C921092F8028091CB02A9
:10405000811581F08091CC02811561F01092F602F9
:104060001092F7021092CB021092CC0260E08EE028
:104070000E94DF038091F802811509F442C30E9477
:1040800069026093F1027093F2028093F3029093BD
:10409000F402B8E07B1688F4162D072C01C0110F2E
:1040A0000A94EAF7812F887A811103C314751111DC
:1040B000D6C2E1E07E1609F485C227E534E03A83F2
:1040C000298310E0A981BA81CD90DD90ED90FD901B
:1040D000BA83A9836091F9027091FA0280E090E0BE
:1040E0000E94272620E030E04AE754E40E947F2522
:1040F00020E030E040E85FE30E940E25A701960132
:104100000E94BF26D62EE72EF82E092F20E030E0A1
:1041100048EC52E40E94B026E981FA8134971816DF
:104120000CF44BC28D2D9E2DAF2DB02F808391832B
:10413000A283B383812F0E9403161F5F133011F6F1
:104140000E9469027B886093D5027093D6028093A7
:10415000D7029093D8026092F5021092F802B8E06C
:104160007B125ACC8091F502811509F482C00E941D
:1041700069020091D5021091D6022091D7023091A8
:10418000D8020854144F2F4F3F4F06171707280720
:10419000390708F06EC08091C7029091C8029093D1
:1041A000CA028093C90289EDE82E82E0F82E07E565
:1041B00014E0EBE0F4E0FA83E983912CD7016D91F0
:1041C0007D918D919D917D010E94BD16F8016191B7
:1041D0007191819191918F010E94BD16A981BA813F
:1041E000AD90BD90BA83A9838091C9029091CA0213
:1041F0000E94710B9C01C090C902D090CA02C601F6
:104200000296A216B30669F00E94230B811521F0D5
:10421000B501C6010E9493278091C9029091CA02FC
:1042200002969093CA028093C902892D0E94E50AE2
:10423000F70192918291729162910E94B816F801F1
:1042400092918291729162910E94B816E981FA81ED
:104250007291629180E090E04AE00E944E0A0E94D2
:104260004A0A0E944A0A9394B3E09B12A7CF109285
:10427000F5020E9469020091F1021091F202209170
:10428000F3023091F40208511C4F2F4F3F4F061795
:1042900017072807390708F436C280E090E0892B19
:1042A00009F4B7CB0E949C04811509F4B2CB0E949B
:1042B0000000AFCB0E94E91165E070E080E090E083
:1042C0000E94E40291CA0E94E91165E070E080E07A
:1042D00090E00E94E402CFCA8091C9029091CA0284
:1042E0000E94490B2091C9023091CA022C5F3F4FB6
:1042F0003093CA022093C9020C891D89000F111F37
:10430000000F111FF801E752FD4F60837183828314
:104310009383C9010E94490B2091C9023091CA02BE
:104320002C5F3F4F3093CA022093C902F801E95A2B
:10433000FB4F6083718382839383C9010E94710B59
:104340002091C9023091CA022E5F3F4F3093CA02BA
:104350002093C902EC89FD89EE0FFF1FE55FFB4F3B
:104360009183808389810E94031689810E94C514EC
:10437000D7CA0E94E91165E070E080E090E00E94F9
:10438000E402EACA672B09F0EFCB608570E0022EE9
:1043900002C0759567950A94E2F760FDE5CB41E0B0
:1043A00050E0022E01C0440F0A94EAF740954B21D9
:1043B000DACB211509F4EACB8F778064F201858B83
:1043C000E5CBF401E00FF11F508024E0529EF00194
:1043D0001124EA0DFB1D80819181A281B381898323
:1043E0009A83AB83BC83D401EC91B4E0EB9FF001E2
:1043F0001124EA0DFB1D20813181428153816981A5
:104400007A818B819C810E947A251816A4F580916F
:10441000DA03811133C07801FA86E986E1E0EE1A09
:10442000F108F401EE0DFF1DE08124E0E29FF001B0
:104430001124EA0DFB1D2081318142815381698164
:104440007A818B819C810E947A2587FD11C0C801E9
:104450002091D8033091D903F901E80FF91F49855C
:104460005A8548175907C0F150820F5F1F4F9CCCE7
:10447000E114F10489F619861A86E9CF813039F7FB
:104480001A870987E12CF12C1DC0C984DA84CE0C6F
:10449000DF1CD694C794F401EC0DFD1DE08134E0DF
:1044A000E39FF0011124EA0DFB1D2081318142813F
:1044B000538169817A818B819C810E947A2587FD55
:1044C00008C0760189859A858E199F090297E8F6BA
:1044D000BECFDA86C986F6CF0197280F391FD901DA
:1044E0002C912083B5CF198270E080EC9FE7A0CC9F
:1044F0008B2D9C2D0E940D255DCD81E038C9D20108
:1045000053969C91539790FD74CD55968C915597E9
:10451000C72CD12C8601000F111FF801E75FFC4F5B
:104520008080918087FF09C08F7755968C9355972F
:1045300054969C93C2010E949A02F201838980FDE5
:1045400058CD0E947502A12CB12CD2011B962D9141
:104550003D914D915C911E97621B730B840B950BE3
:104560000E9427262FE632E143E85AE30E94BF2645
:104570000E94F82586169706A806B90608F039CDD8
:10458000C2010E949A02F601E353FD4F80818F5FC2
:104590008083853160F0F801E750FD4F8081918183
:1045A0008115B1E09B0730F402969183808360927D
:1045B000F8021FCD80E091E0F8CF80E090E0A8EC19
:1045C000B2E4B4CDE7E5F4E0FA83E983A981BA81E6
:1045D000CD90DD90ED90FD90BA83A9836091FB02B0
:1045E0007091FC0280E090E00E94272620E030E0FD
:1045F0004AE754E40E947F2520E030E040E85FE392
:104600000E940E259B01AC01C701B6010E947F25C7
:10461000D62EE72EF82E092F20E030E040E251E4BC
:104620000E947A25E981FA81349787FD13C08D2D88
:104630009E2DAF2DB02F80839183A283B383812FD2
:104640000E9403161F5F133009F60E94690212E0F0
:10465000712E79CD80E090E0A0E2B1E4ECCF272D7F
:1046600030E0C901959587950197AC01440F551F1E
:10467000FA01E55FFB4F608171816115B0E47B0752
:10468000A8F4220F331FF901E750FD4F208131813B
:10469000260F371F455F5B4FFA01318320830E944D
:1046A000C5140E946902739473944DCD20E030E4E8
:1046B000F1CF672D70E09B0123503109C901959519
:1046C00087952E7FF901E55FFB4F40815181660F91
:1046D000771FFB01E750FD4F608171814617570737
:1046E00068F0461B570B255F3B4FD9014D935C93F8
:1046F0000E94C5140E946902739425CD40E050E0E9
:10470000F2CF73942CCD0E9469026093F1027093F2
:10471000F2028093F3029093F402EBEDF3E0FA835C
:10472000E98310E0812F0E941015A981BA811396A8
:104730008C911397811132C81F5F5096BA83A98359
:10474000133081F7AACD109225031092240388EE2E
:1047500093E0A0E0B0E08093260390932703A0931A
:104760002803B09329032FE131E0309323032093F2
:1047700022032DEC30E030932F0320932E032CECFA
:1047800030E0309331032093300328EC30E0309355
:1047900033032093320329EC30E030933503209328
:1047A00034032AEC30E030933703209336032EECA9
:1047B00030E0309339032093380310923B0310927A
:1047C0003C0310923D0310923E0310926604109237
:1047D00065048093670490936804A0936904B09380
:1047E0006A0481E391E090936404809363048FEF03
:1047F0009FEF9093700480936F0484E690E0909311
:10480000C6028093C5021092CE031092CD0310927F
:10481000D0031092CF0381E08093D10386E090E033
:104820000E9498279093CC038093CB03892B31F07F
:1048300081E090E09093CE038093CD031092AF027D
:104840001092AE021092B1021092B00281E08093F9
:10485000B20288E090E00E9498279093AD02809386
:10486000AC02892B31F081E090E09093AF0280930D
:10487000AE0280EB90E00E9498279C01FC01AC0105
:1048800040555F4FA2E08FEF68E873E191E010823E
:10489000A18382838383728761871386148615863A
:1048A0001686838B848B958B76964E175F0779F7E8
:1048B00030931A03209319031092140410921304D6
:1048C0001092160410921504109217049093180475
:1048D00010921A041092190428E432E030931C0458
:1048E00020931B0430931E0420931D042FEF3FEFF1
:1048F00030932204209321049093230410922804DF
:104900001092290410922A0410922B0410922C0465
:1049100010922E0410922F04109230041092310441
:104920001092330410923204109235041092340421
:104930001092370410923604109239041092380401
:1049400010923B0410923A048DE790E090933D045E
:1049500080933C0410923E048EE591E09093120403
:10496000809311041092C8021092C7021092CA02DA
:104970001092C9021092DA038AEF8093D30388EE73
:1049800093E00E9498279093D7038093D6038AEFF1
:1049900090E00E9498279093D9038093D8031092B7
:1049A000D4031092D5031092D20380E09091D303E8
:1049B000891708F00895E091D803F091D903E80F22
:1049C000F11D80838F5FF2CFE894BB27662777279E
:1049D000CB0197F9089557FD9058440F551F59F092
:1049E0005F3F71F04795880F97FB991F61F09F3FDC
:1049F00079F087950895121613061406551FF2CF05
:104A00004695F1DF08C0161617061806991FF1CF54
:104A1000869571056105089408955058BB27AA270B
:104A20000E9425250C949F260E94912638F00E9412
:104A3000982620F039F49F3F19F426F40C948E2622
:104A40000EF4E095E7FB0C948826E92F0E94EB24F6
:104A500058F3BA17620773078407950720F079F4B3
:104A6000A6F50C94E4240EF4E0950B2EBA2FA02D9D
:104A70000B01B90190010C01CA01A0011124FF270B
:104A8000591B99F0593F50F4503E68F11A16F04006
:104A9000A22F232F342F4427585FF3CF4695379505
:104AA0002795A795F0405395C9F77EF41F16BA0BCA
:104AB000620B730B840BBAF09150A1F0FF0FBB1F78
:104AC000661F771F881FC2F70EC0BA0F621F731FC1
:104AD000841F48F4879577956795B795F7959E3F1E
:104AE00008F0B0CF9395880F08F09927EE0F9795AF
:104AF000879508950E94642608F481E008950E9435
:104B000093250C949F260E94982658F00E94912687
:104B100040F029F45F3F29F00C94882651110C9441
:104B2000E5240C948E260E94EB2468F39923B1F3BC
:104B3000552391F3951B550BBB27AA2762177307C3
:104B4000840738F09F5F5F4F220F331F441FAA1F57
:104B5000A9F335D00E2E3AF0E0E832D09150504013
:104B6000E695001CCAF72BD0FE2F29D0660F771FC1
:104B7000881FBB1F261737074807AB07B0E809F0A7
:104B8000BB0B802DBF01FF2793585F4F3AF09E3F2C
:104B9000510578F00C9488260C94E5245F3FE4F3EB
:104BA000983ED4F3869577956795B795F7959F5F6F
:104BB000C9F7880F911D9695879597F90895E1E0BB
:104BC000660F771F881FBB1F621773078407BA071A
:104BD00020F0621B730B840BBA0BEE1F88F7E09575
:104BE00008950E94F8256894B1110C94E524089565
:104BF0000E94F32488F09F5798F0B92F9927B75156
:104C0000B0F0E1F0660F771F881F991F1AF0BA9570
:104C1000C9F714C0B13091F00E94E424B1E00895C6
:104C20000C94E424672F782F8827B85F39F0B93FB8
:104C3000CCF3869577956795B395D9F73EF4909523
:104C40008095709561957F4F8F4F9F4F0895E894A1
:104C500009C097FB3EF490958095709561957F4FC4
:104C60008F4F9F4F9923A9F0F92F96E9BB27939572
:104C7000F695879577956795B795F111F8CFFAF482
:104C8000BB0F11F460FF1BC06F5F7F4F8F4F9F4FB3
:104C900016C0882311F096E911C0772321F09EE811
:104CA000872F762F05C0662371F096E8862F70E077
:104CB00060E02AF09A95660F771F881FDAF7880F51
:104CC0009695879597F90895990F0008550FAA0BA7
:104CD000E0E8FEEF16161706E807F907C0F012160F
:104CE0001306E407F50798F0621B730B840B950B12
:104CF00039F40A2661F0232B242B252B21F4089567
:104D00000A2609F4A140A6958FEF811D811D089503
:104D100097F99F6780E870E060E008959FEF80EC6E
:104D2000089500240A941616170618060906089511
:104D300000240A9412161306140605060895092E77
:104D40000394000C11F4882352F0BB0F40F4BF2BE6
:104D500011F460FF04C06F5F7F4F8F4F9F4F089526
:104D60000E94642608F48FEF08950E94F32480E0E7
:104D700090E020F419F40EF40297839508950E94B0
:104D8000D2260C949F260E94912638F00E949826E5
:104D900020F0952311F00C9488260C948E26112473
:104DA0000C94E5240E94EB2470F3959FC1F3950FBA
:104DB00050E0551F629FF001729FBB27F00DB11D9F
:104DC000639FAA27F00DB11DAA1F649F6627B00D2F
:104DD000A11D661F829F2227B00DA11D621F739F18
:104DE000B00DA11D621F839FA00D611D221F749F26
:104DF0003327A00D611D231F849F600D211D822F6D
:104E0000762F6A2F11249F5750409AF0F1F0882393
:104E10004AF0EE0FFF1FBB1F661F771F881F9150C0
:104E20005040A9F79E3F510580F00C9488260C94C1
:104E3000E5245F3FE4F3983ED4F386957795679534
:104E4000B795F795E7959F5FC1F7FE2B880F911DEA
:104E50009695879597F908950E946426880B990B7B
:104E60000895992778E0880F991F961708F0961BE8
:104E7000881F7A95C9F780950895A1E21A2EAA1B7A
:104E8000BB1BFD010DC0AA1FBB1FEE1FFF1FA217FA
:104E9000B307E407F50720F0A21BB30BE40BF50BF7
:104EA000661F771F881F991F1A9469F76095709580
:104EB000809590959B01AC01BD01CF010895EE0F47
:104EC000FF1F0590F491E02D0994DC01CB01FC015A
:104ED000F999FECF06C0F2BDE1BDF89A319600B453
:104EE0000D9241505040B8F70895A8E1B0E042E07B
:104EF00050E00C946727DC01CB0103C02D910E9488
:104F0000862741505040D0F70895262FF999FECFBB
:104F10001FBA92BD81BD20BD0FB6F894FA9AF99AD6
:104F20000FBE019608950E948527272F0C9486278F
:104F30000F931F93CF93DF939C01029710F422E00D
:104F400030E0E091B304F091B40480E090E0A0E0A0
:104F5000B0E0309791F4009709F448C0821B930B9E
:104F600084309105D0F58A819B816115710581F1AD
:104F7000FB0193838283FE0111C040815181028134
:104F8000138142175307D8F04217530799F410972B
:104F900061F012960C93129713961C933296CF01E0
:104FA000DF91CF911F910F9108950093B304109357
:104FB000B404F4CF009751F04817590738F0AC010A
:104FC000DB01CA01BD01DF01F801C3CFEF01F9CF59
:104FD0009093B4048093B304CECFFE01E80FF91F81
:104FE00021933193029799838883D9CF4091B50457
:104FF0005091B6044115510541F440911101509171
:1050000012015093B6044093B50480910F01909122
:105010001001009741F48DB79EB760911301709114
:105020001401861B970B4817590708F0B8CF841B4B
:10503000950B8217930708F4B2CFB9016E5F7F4FCB
:105040008617970708F4ABCF640F751F7093B604EB
:105050006093B504FA0121933193A1CFCF93DF93ED
:105060009C010097E9F0FC01329713821282C091F3
:10507000B304D091B404DE0180E090E02097A1F465
:1050800080819181280F391F8091B5049091B604D9
:105090008217930709F068C0F093B604E093B50453
:1050A000DF91CF910895DA01AE17BF0708F042C033
:1050B00012964D915C911397CD014115510599F7C9
:1050C000DC011396FC93EE9312974D915D919D0137
:1050D000240F351FE217F30781F4208131812E5F01
:1050E0003F4F240F351FDC0111963C932E932281F4
:1050F000338113963C932E931297E0E0F0E08A817F
:105100009B810097B1F5DE018D919D918A0F9B1FC8
:105110002091B5043091B6042817390709F6309765
:1051200059F51092B4041092B304D093B604C0930E
:10513000B504B6CFB383A28340815181240F351FBC
:10514000A217B30771F44E5F5F4F2D913C911197F9
:10515000240F351F3183208312962D913C91338388
:105160002283009709F0ACCFF093B404E093B3042A
:1051700097CFFE01EC01C3CF13821282D6CFFB0181
:10518000DC0102C001900D9241505040D8F70895C3
:1051900011E0CBEDD1E004C0FE010E945F27219613
:1051A000CC3DD107C9F7F894FFCFBA03BE03AC03D7
:1051B000B203B603DE03DE03DE03C103C703CB0382
:1051C000CF03D503DE03D903380E780E610DBB0E75
:1051D000FE0EF30C5811581158115811581158114E
:1051E00058115811560FA40D581158115811F40F99
:1051F0003B106B10D7104A144A14071407142414D8
:105200002414C014C014C014C014C014C014C0149A
:10521000C01424142414C014C014C01486142414FC
:1052200024140714EB171818F3172318F3172C1866
:085230003518A418E318E71873
:10523800000201FFFFFFFF00E10000000000000086
:1052480000B70420007B019A01E80100000000017A
:10525800054D05D204E1049104BE04B00400000029
:10526800005A040E060A064F043504C906BB060296
:10527800030405060708090000803FFAA4CF3EFA98
:10528800A4CF3E00C1808100000000000000100291
:1052980006020102030D0A005265717565737420D8
:1052A800726573756C743A20307800537461747544
:1052B8007320776F726420616C61726D206269740B
:1052C800206973204849474821005570706572204D
:1052D8004643206672657175656E6379206973202F
:1052E8006E6F74206265747765656E204D617820F5
:1052F8005265666572656E636520616E64204D69EE
:105308006E205265666572656E6365206F662073F0
:105318006C6176652046430046432069736E2774A6
:105328002072656164792C2073746F7070696E6780
:1053380021004578636565646564206D6178696DF1
:10534800756D206E756D626572206F662077726963
:1053580074657300417474656D707420746F207780
:1053680072697465206F757473696465206F66204F
:10537800454550524F4D206D656D6F72790052450D
:10538800467265675B005D203D20002073656E7482
:105398002E006E616E00696E66006F7666004D6164
:1053A800784672715B0043616E6E6F74206368614A
:1053B8006E6765206365696C696E672C2062656C31
:1053C8006F772069737375656420616464726573AF
:0C53D8007365730020726561642E000094
:00000001FF
